{
  "abi": [
    {
      "inputs": [
        {
          "components": [
            {
              "internalType": "address",
              "name": "deployer",
              "type": "address"
            },
            {
              "internalType": "bytes",
              "name": "meta",
              "type": "bytes"
            }
          ],
          "internalType": "struct DeployerDiscoverableMetaV2ConstructionConfig",
          "name": "config",
          "type": "tuple"
        }
      ],
      "stateMutability": "nonpayable",
      "type": "constructor"
    },
    {
      "inputs": [
        {
          "internalType": "address",
          "name": "receiver",
          "type": "address"
        },
        {
          "internalType": "address",
          "name": "token",
          "type": "address"
        },
        {
          "internalType": "uint256",
          "name": "amount",
          "type": "uint256"
        }
      ],
      "name": "ActiveDebt",
      "type": "error"
    },
    {
      "inputs": [
        {
          "internalType": "bytes32",
          "name": "result",
          "type": "bytes32"
        }
      ],
      "name": "FlashLenderCallbackFailed",
      "type": "error"
    },
    {
      "inputs": [
        {
          "internalType": "uint256",
          "name": "i",
          "type": "uint256"
        }
      ],
      "name": "InvalidSignature",
      "type": "error"
    },
    {
      "inputs": [
        {
          "internalType": "uint256",
          "name": "minimumInput",
          "type": "uint256"
        },
        {
          "internalType": "uint256",
          "name": "input",
          "type": "uint256"
        }
      ],
      "name": "MinimumInput",
      "type": "error"
    },
    {
      "inputs": [
        {
          "internalType": "address",
          "name": "sender",
          "type": "address"
        },
        {
          "internalType": "address",
          "name": "owner",
          "type": "address"
        }
      ],
      "name": "NotOrderOwner",
      "type": "error"
    },
    {
      "inputs": [
        {
          "internalType": "bytes",
          "name": "unmeta",
          "type": "bytes"
        }
      ],
      "name": "NotRainMetaV1",
      "type": "error"
    },
    {
      "inputs": [
        {
          "internalType": "address",
          "name": "sender",
          "type": "address"
        }
      ],
      "name": "OrderNoHandleIO",
      "type": "error"
    },
    {
      "inputs": [
        {
          "internalType": "address",
          "name": "sender",
          "type": "address"
        }
      ],
      "name": "OrderNoInputs",
      "type": "error"
    },
    {
      "inputs": [
        {
          "internalType": "address",
          "name": "sender",
          "type": "address"
        }
      ],
      "name": "OrderNoOutputs",
      "type": "error"
    },
    {
      "inputs": [
        {
          "internalType": "address",
          "name": "sender",
          "type": "address"
        }
      ],
      "name": "OrderNoSources",
      "type": "error"
    },
    {
      "inputs": [],
      "name": "ReentrancyGuardReentrantCall",
      "type": "error"
    },
    {
      "inputs": [
        {
          "internalType": "address",
          "name": "owner",
          "type": "address"
        }
      ],
      "name": "SameOwner",
      "type": "error"
    },
    {
      "inputs": [
        {
          "internalType": "bytes",
          "name": "bytecode",
          "type": "bytes"
        },
        {
          "internalType": "uint256",
          "name": "sourceIndex",
          "type": "uint256"
        }
      ],
      "name": "SourceOffsetOutOfBounds",
      "type": "error"
    },
    {
      "inputs": [
        {
          "internalType": "address",
          "name": "aliceToken",
          "type": "address"
        },
        {
          "internalType": "address",
          "name": "bobToken",
          "type": "address"
        }
      ],
      "name": "TokenMismatch",
      "type": "error"
    },
    {
      "inputs": [
        {
          "internalType": "bytes32",
          "name": "expectedHash",
          "type": "bytes32"
        },
        {
          "internalType": "bytes32",
          "name": "actualHash",
          "type": "bytes32"
        }
      ],
      "name": "UnexpectedMetaHash",
      "type": "error"
    },
    {
      "inputs": [],
      "name": "ZeroAmount",
      "type": "error"
    },
    {
      "inputs": [
        {
          "internalType": "address",
          "name": "sender",
          "type": "address"
        },
        {
          "internalType": "address",
          "name": "token",
          "type": "address"
        },
        {
          "internalType": "uint256",
          "name": "vaultId",
          "type": "uint256"
        }
      ],
      "name": "ZeroDepositAmount",
      "type": "error"
    },
    {
      "inputs": [],
      "name": "ZeroReceiver",
      "type": "error"
    },
    {
      "inputs": [],
      "name": "ZeroToken",
      "type": "error"
    },
    {
      "inputs": [
        {
          "internalType": "address",
          "name": "sender",
          "type": "address"
        },
        {
          "internalType": "address",
          "name": "token",
          "type": "address"
        },
        {
          "internalType": "uint256",
          "name": "vaultId",
          "type": "uint256"
        }
      ],
      "name": "ZeroWithdrawTargetAmount",
      "type": "error"
    },
    {
      "anonymous": false,
      "inputs": [
        {
          "indexed": false,
          "internalType": "address",
          "name": "sender",
          "type": "address"
        },
        {
          "indexed": false,
          "internalType": "contract IExpressionDeployerV2",
          "name": "expressionDeployer",
          "type": "address"
        },
        {
          "components": [
            {
              "internalType": "address",
              "name": "owner",
              "type": "address"
            },
            {
              "internalType": "bool",
              "name": "handleIO",
              "type": "bool"
            },
            {
              "components": [
                {
                  "internalType": "contract IInterpreterV1",
                  "name": "interpreter",
                  "type": "address"
                },
                {
                  "internalType": "contract IInterpreterStoreV1",
                  "name": "store",
                  "type": "address"
                },
                {
                  "internalType": "address",
                  "name": "expression",
                  "type": "address"
                }
              ],
              "internalType": "struct Evaluable",
              "name": "evaluable",
              "type": "tuple"
            },
            {
              "components": [
                {
                  "internalType": "address",
                  "name": "token",
                  "type": "address"
                },
                {
                  "internalType": "uint8",
                  "name": "decimals",
                  "type": "uint8"
                },
                {
                  "internalType": "uint256",
                  "name": "vaultId",
                  "type": "uint256"
                }
              ],
              "internalType": "struct IO[]",
              "name": "validInputs",
              "type": "tuple[]"
            },
            {
              "components": [
                {
                  "internalType": "address",
                  "name": "token",
                  "type": "address"
                },
                {
                  "internalType": "uint8",
                  "name": "decimals",
                  "type": "uint8"
                },
                {
                  "internalType": "uint256",
                  "name": "vaultId",
                  "type": "uint256"
                }
              ],
              "internalType": "struct IO[]",
              "name": "validOutputs",
              "type": "tuple[]"
            }
          ],
          "indexed": false,
          "internalType": "struct Order",
          "name": "order",
          "type": "tuple"
        },
        {
          "indexed": false,
          "internalType": "bytes32",
          "name": "orderHash",
          "type": "bytes32"
        }
      ],
      "name": "AddOrder",
      "type": "event"
    },
    {
      "anonymous": false,
      "inputs": [
        {
          "indexed": false,
          "internalType": "address",
          "name": "sender",
          "type": "address"
        },
        {
          "components": [
            {
              "internalType": "uint256",
              "name": "aliceOutput",
              "type": "uint256"
            },
            {
              "internalType": "uint256",
              "name": "bobOutput",
              "type": "uint256"
            },
            {
              "internalType": "uint256",
              "name": "aliceInput",
              "type": "uint256"
            },
            {
              "internalType": "uint256",
              "name": "bobInput",
              "type": "uint256"
            }
          ],
          "indexed": false,
          "internalType": "struct ClearStateChange",
          "name": "clearStateChange",
          "type": "tuple"
        }
      ],
      "name": "AfterClear",
      "type": "event"
    },
    {
      "anonymous": false,
      "inputs": [
        {
          "indexed": false,
          "internalType": "address",
          "name": "sender",
          "type": "address"
        },
        {
          "components": [
            {
              "internalType": "address",
              "name": "owner",
              "type": "address"
            },
            {
              "internalType": "bool",
              "name": "handleIO",
              "type": "bool"
            },
            {
              "components": [
                {
                  "internalType": "contract IInterpreterV1",
                  "name": "interpreter",
                  "type": "address"
                },
                {
                  "internalType": "contract IInterpreterStoreV1",
                  "name": "store",
                  "type": "address"
                },
                {
                  "internalType": "address",
                  "name": "expression",
                  "type": "address"
                }
              ],
              "internalType": "struct Evaluable",
              "name": "evaluable",
              "type": "tuple"
            },
            {
              "components": [
                {
                  "internalType": "address",
                  "name": "token",
                  "type": "address"
                },
                {
                  "internalType": "uint8",
                  "name": "decimals",
                  "type": "uint8"
                },
                {
                  "internalType": "uint256",
                  "name": "vaultId",
                  "type": "uint256"
                }
              ],
              "internalType": "struct IO[]",
              "name": "validInputs",
              "type": "tuple[]"
            },
            {
              "components": [
                {
                  "internalType": "address",
                  "name": "token",
                  "type": "address"
                },
                {
                  "internalType": "uint8",
                  "name": "decimals",
                  "type": "uint8"
                },
                {
                  "internalType": "uint256",
                  "name": "vaultId",
                  "type": "uint256"
                }
              ],
              "internalType": "struct IO[]",
              "name": "validOutputs",
              "type": "tuple[]"
            }
          ],
          "indexed": false,
          "internalType": "struct Order",
          "name": "alice",
          "type": "tuple"
        },
        {
          "components": [
            {
              "internalType": "address",
              "name": "owner",
              "type": "address"
            },
            {
              "internalType": "bool",
              "name": "handleIO",
              "type": "bool"
            },
            {
              "components": [
                {
                  "internalType": "contract IInterpreterV1",
                  "name": "interpreter",
                  "type": "address"
                },
                {
                  "internalType": "contract IInterpreterStoreV1",
                  "name": "store",
                  "type": "address"
                },
                {
                  "internalType": "address",
                  "name": "expression",
                  "type": "address"
                }
              ],
              "internalType": "struct Evaluable",
              "name": "evaluable",
              "type": "tuple"
            },
            {
              "components": [
                {
                  "internalType": "address",
                  "name": "token",
                  "type": "address"
                },
                {
                  "internalType": "uint8",
                  "name": "decimals",
                  "type": "uint8"
                },
                {
                  "internalType": "uint256",
                  "name": "vaultId",
                  "type": "uint256"
                }
              ],
              "internalType": "struct IO[]",
              "name": "validInputs",
              "type": "tuple[]"
            },
            {
              "components": [
                {
                  "internalType": "address",
                  "name": "token",
                  "type": "address"
                },
                {
                  "internalType": "uint8",
                  "name": "decimals",
                  "type": "uint8"
                },
                {
                  "internalType": "uint256",
                  "name": "vaultId",
                  "type": "uint256"
                }
              ],
              "internalType": "struct IO[]",
              "name": "validOutputs",
              "type": "tuple[]"
            }
          ],
          "indexed": false,
          "internalType": "struct Order",
          "name": "bob",
          "type": "tuple"
        },
        {
          "components": [
            {
              "internalType": "uint256",
              "name": "aliceInputIOIndex",
              "type": "uint256"
            },
            {
              "internalType": "uint256",
              "name": "aliceOutputIOIndex",
              "type": "uint256"
            },
            {
              "internalType": "uint256",
              "name": "bobInputIOIndex",
              "type": "uint256"
            },
            {
              "internalType": "uint256",
              "name": "bobOutputIOIndex",
              "type": "uint256"
            },
            {
              "internalType": "uint256",
              "name": "aliceBountyVaultId",
              "type": "uint256"
            },
            {
              "internalType": "uint256",
              "name": "bobBountyVaultId",
              "type": "uint256"
            }
          ],
          "indexed": false,
          "internalType": "struct ClearConfig",
          "name": "clearConfig",
          "type": "tuple"
        }
      ],
      "name": "Clear",
      "type": "event"
    },
    {
      "anonymous": false,
      "inputs": [
        {
          "indexed": false,
          "internalType": "address",
          "name": "sender",
          "type": "address"
        },
        {
          "indexed": false,
          "internalType": "uint256[][]",
          "name": "context",
          "type": "uint256[][]"
        }
      ],
      "name": "Context",
      "type": "event"
    },
    {
      "anonymous": false,
      "inputs": [
        {
          "indexed": false,
          "internalType": "address",
          "name": "sender",
          "type": "address"
        },
        {
          "indexed": false,
          "internalType": "address",
          "name": "token",
          "type": "address"
        },
        {
          "indexed": false,
          "internalType": "uint256",
          "name": "vaultId",
          "type": "uint256"
        },
        {
          "indexed": false,
          "internalType": "uint256",
          "name": "amount",
          "type": "uint256"
        }
      ],
      "name": "Deposit",
      "type": "event"
    },
    {
      "anonymous": false,
      "inputs": [
        {
          "indexed": false,
          "internalType": "address",
          "name": "sender",
          "type": "address"
        },
        {
          "indexed": false,
          "internalType": "uint256",
          "name": "subject",
          "type": "uint256"
        },
        {
          "indexed": false,
          "internalType": "bytes",
          "name": "meta",
          "type": "bytes"
        }
      ],
      "name": "MetaV1",
      "type": "event"
    },
    {
      "anonymous": false,
      "inputs": [
        {
          "indexed": false,
          "internalType": "address",
          "name": "sender",
          "type": "address"
        },
        {
          "indexed": false,
          "internalType": "address",
          "name": "owner",
          "type": "address"
        },
        {
          "indexed": false,
          "internalType": "bytes32",
          "name": "orderHash",
          "type": "bytes32"
        }
      ],
      "name": "OrderExceedsMaxRatio",
      "type": "event"
    },
    {
      "anonymous": false,
      "inputs": [
        {
          "indexed": false,
          "internalType": "address",
          "name": "sender",
          "type": "address"
        },
        {
          "indexed": false,
          "internalType": "address",
          "name": "owner",
          "type": "address"
        },
        {
          "indexed": false,
          "internalType": "bytes32",
          "name": "orderHash",
          "type": "bytes32"
        }
      ],
      "name": "OrderNotFound",
      "type": "event"
    },
    {
      "anonymous": false,
      "inputs": [
        {
          "indexed": false,
          "internalType": "address",
          "name": "sender",
          "type": "address"
        },
        {
          "indexed": false,
          "internalType": "address",
          "name": "owner",
          "type": "address"
        },
        {
          "indexed": false,
          "internalType": "bytes32",
          "name": "orderHash",
          "type": "bytes32"
        }
      ],
      "name": "OrderZeroAmount",
      "type": "event"
    },
    {
      "anonymous": false,
      "inputs": [
        {
          "indexed": false,
          "internalType": "address",
          "name": "sender",
          "type": "address"
        },
        {
          "components": [
            {
              "internalType": "address",
              "name": "owner",
              "type": "address"
            },
            {
              "internalType": "bool",
              "name": "handleIO",
              "type": "bool"
            },
            {
              "components": [
                {
                  "internalType": "contract IInterpreterV1",
                  "name": "interpreter",
                  "type": "address"
                },
                {
                  "internalType": "contract IInterpreterStoreV1",
                  "name": "store",
                  "type": "address"
                },
                {
                  "internalType": "address",
                  "name": "expression",
                  "type": "address"
                }
              ],
              "internalType": "struct Evaluable",
              "name": "evaluable",
              "type": "tuple"
            },
            {
              "components": [
                {
                  "internalType": "address",
                  "name": "token",
                  "type": "address"
                },
                {
                  "internalType": "uint8",
                  "name": "decimals",
                  "type": "uint8"
                },
                {
                  "internalType": "uint256",
                  "name": "vaultId",
                  "type": "uint256"
                }
              ],
              "internalType": "struct IO[]",
              "name": "validInputs",
              "type": "tuple[]"
            },
            {
              "components": [
                {
                  "internalType": "address",
                  "name": "token",
                  "type": "address"
                },
                {
                  "internalType": "uint8",
                  "name": "decimals",
                  "type": "uint8"
                },
                {
                  "internalType": "uint256",
                  "name": "vaultId",
                  "type": "uint256"
                }
              ],
              "internalType": "struct IO[]",
              "name": "validOutputs",
              "type": "tuple[]"
            }
          ],
          "indexed": false,
          "internalType": "struct Order",
          "name": "order",
          "type": "tuple"
        },
        {
          "indexed": false,
          "internalType": "bytes32",
          "name": "orderHash",
          "type": "bytes32"
        }
      ],
      "name": "RemoveOrder",
      "type": "event"
    },
    {
      "anonymous": false,
      "inputs": [
        {
          "indexed": false,
          "internalType": "address",
          "name": "sender",
          "type": "address"
        },
        {
          "components": [
            {
              "components": [
                {
                  "internalType": "address",
                  "name": "owner",
                  "type": "address"
                },
                {
                  "internalType": "bool",
                  "name": "handleIO",
                  "type": "bool"
                },
                {
                  "components": [
                    {
                      "internalType": "contract IInterpreterV1",
                      "name": "interpreter",
                      "type": "address"
                    },
                    {
                      "internalType": "contract IInterpreterStoreV1",
                      "name": "store",
                      "type": "address"
                    },
                    {
                      "internalType": "address",
                      "name": "expression",
                      "type": "address"
                    }
                  ],
                  "internalType": "struct Evaluable",
                  "name": "evaluable",
                  "type": "tuple"
                },
                {
                  "components": [
                    {
                      "internalType": "address",
                      "name": "token",
                      "type": "address"
                    },
                    {
                      "internalType": "uint8",
                      "name": "decimals",
                      "type": "uint8"
                    },
                    {
                      "internalType": "uint256",
                      "name": "vaultId",
                      "type": "uint256"
                    }
                  ],
                  "internalType": "struct IO[]",
                  "name": "validInputs",
                  "type": "tuple[]"
                },
                {
                  "components": [
                    {
                      "internalType": "address",
                      "name": "token",
                      "type": "address"
                    },
                    {
                      "internalType": "uint8",
                      "name": "decimals",
                      "type": "uint8"
                    },
                    {
                      "internalType": "uint256",
                      "name": "vaultId",
                      "type": "uint256"
                    }
                  ],
                  "internalType": "struct IO[]",
                  "name": "validOutputs",
                  "type": "tuple[]"
                }
              ],
              "internalType": "struct Order",
              "name": "order",
              "type": "tuple"
            },
            {
              "internalType": "uint256",
              "name": "inputIOIndex",
              "type": "uint256"
            },
            {
              "internalType": "uint256",
              "name": "outputIOIndex",
              "type": "uint256"
            },
            {
              "components": [
                {
                  "internalType": "address",
                  "name": "signer",
                  "type": "address"
                },
                {
                  "internalType": "uint256[]",
                  "name": "context",
                  "type": "uint256[]"
                },
                {
                  "internalType": "bytes",
                  "name": "signature",
                  "type": "bytes"
                }
              ],
              "internalType": "struct SignedContextV1[]",
              "name": "signedContext",
              "type": "tuple[]"
            }
          ],
          "indexed": false,
          "internalType": "struct TakeOrderConfig",
          "name": "config",
          "type": "tuple"
        },
        {
          "indexed": false,
          "internalType": "uint256",
          "name": "input",
          "type": "uint256"
        },
        {
          "indexed": false,
          "internalType": "uint256",
          "name": "output",
          "type": "uint256"
        }
      ],
      "name": "TakeOrder",
      "type": "event"
    },
    {
      "anonymous": false,
      "inputs": [
        {
          "indexed": false,
          "internalType": "address",
          "name": "sender",
          "type": "address"
        },
        {
          "indexed": false,
          "internalType": "address",
          "name": "token",
          "type": "address"
        },
        {
          "indexed": false,
          "internalType": "uint256",
          "name": "vaultId",
          "type": "uint256"
        },
        {
          "indexed": false,
          "internalType": "uint256",
          "name": "targetAmount",
          "type": "uint256"
        },
        {
          "indexed": false,
          "internalType": "uint256",
          "name": "amount",
          "type": "uint256"
        }
      ],
      "name": "Withdraw",
      "type": "event"
    },
    {
      "inputs": [
        {
          "components": [
            {
              "components": [
                {
                  "internalType": "address",
                  "name": "token",
                  "type": "address"
                },
                {
                  "internalType": "uint8",
                  "name": "decimals",
                  "type": "uint8"
                },
                {
                  "internalType": "uint256",
                  "name": "vaultId",
                  "type": "uint256"
                }
              ],
              "internalType": "struct IO[]",
              "name": "validInputs",
              "type": "tuple[]"
            },
            {
              "components": [
                {
                  "internalType": "address",
                  "name": "token",
                  "type": "address"
                },
                {
                  "internalType": "uint8",
                  "name": "decimals",
                  "type": "uint8"
                },
                {
                  "internalType": "uint256",
                  "name": "vaultId",
                  "type": "uint256"
                }
              ],
              "internalType": "struct IO[]",
              "name": "validOutputs",
              "type": "tuple[]"
            },
            {
              "components": [
                {
                  "internalType": "contract IExpressionDeployerV2",
                  "name": "deployer",
                  "type": "address"
                },
                {
                  "internalType": "bytes",
                  "name": "bytecode",
                  "type": "bytes"
                },
                {
                  "internalType": "uint256[]",
                  "name": "constants",
                  "type": "uint256[]"
                }
              ],
              "internalType": "struct EvaluableConfigV2",
              "name": "evaluableConfig",
              "type": "tuple"
            },
            {
              "internalType": "bytes",
              "name": "meta",
              "type": "bytes"
            }
          ],
          "internalType": "struct OrderConfigV2",
          "name": "config",
          "type": "tuple"
        }
      ],
      "name": "addOrder",
      "outputs": [
        {
          "internalType": "bool",
          "name": "stateChanged",
          "type": "bool"
        }
      ],
      "stateMutability": "nonpayable",
      "type": "function"
    },
    {
      "inputs": [
        {
          "components": [
            {
              "internalType": "address",
              "name": "owner",
              "type": "address"
            },
            {
              "internalType": "bool",
              "name": "handleIO",
              "type": "bool"
            },
            {
              "components": [
                {
                  "internalType": "contract IInterpreterV1",
                  "name": "interpreter",
                  "type": "address"
                },
                {
                  "internalType": "contract IInterpreterStoreV1",
                  "name": "store",
                  "type": "address"
                },
                {
                  "internalType": "address",
                  "name": "expression",
                  "type": "address"
                }
              ],
              "internalType": "struct Evaluable",
              "name": "evaluable",
              "type": "tuple"
            },
            {
              "components": [
                {
                  "internalType": "address",
                  "name": "token",
                  "type": "address"
                },
                {
                  "internalType": "uint8",
                  "name": "decimals",
                  "type": "uint8"
                },
                {
                  "internalType": "uint256",
                  "name": "vaultId",
                  "type": "uint256"
                }
              ],
              "internalType": "struct IO[]",
              "name": "validInputs",
              "type": "tuple[]"
            },
            {
              "components": [
                {
                  "internalType": "address",
                  "name": "token",
                  "type": "address"
                },
                {
                  "internalType": "uint8",
                  "name": "decimals",
                  "type": "uint8"
                },
                {
                  "internalType": "uint256",
                  "name": "vaultId",
                  "type": "uint256"
                }
              ],
              "internalType": "struct IO[]",
              "name": "validOutputs",
              "type": "tuple[]"
            }
          ],
          "internalType": "struct Order",
          "name": "alice",
          "type": "tuple"
        },
        {
          "components": [
            {
              "internalType": "address",
              "name": "owner",
              "type": "address"
            },
            {
              "internalType": "bool",
              "name": "handleIO",
              "type": "bool"
            },
            {
              "components": [
                {
                  "internalType": "contract IInterpreterV1",
                  "name": "interpreter",
                  "type": "address"
                },
                {
                  "internalType": "contract IInterpreterStoreV1",
                  "name": "store",
                  "type": "address"
                },
                {
                  "internalType": "address",
                  "name": "expression",
                  "type": "address"
                }
              ],
              "internalType": "struct Evaluable",
              "name": "evaluable",
              "type": "tuple"
            },
            {
              "components": [
                {
                  "internalType": "address",
                  "name": "token",
                  "type": "address"
                },
                {
                  "internalType": "uint8",
                  "name": "decimals",
                  "type": "uint8"
                },
                {
                  "internalType": "uint256",
                  "name": "vaultId",
                  "type": "uint256"
                }
              ],
              "internalType": "struct IO[]",
              "name": "validInputs",
              "type": "tuple[]"
            },
            {
              "components": [
                {
                  "internalType": "address",
                  "name": "token",
                  "type": "address"
                },
                {
                  "internalType": "uint8",
                  "name": "decimals",
                  "type": "uint8"
                },
                {
                  "internalType": "uint256",
                  "name": "vaultId",
                  "type": "uint256"
                }
              ],
              "internalType": "struct IO[]",
              "name": "validOutputs",
              "type": "tuple[]"
            }
          ],
          "internalType": "struct Order",
          "name": "bob",
          "type": "tuple"
        },
        {
          "components": [
            {
              "internalType": "uint256",
              "name": "aliceInputIOIndex",
              "type": "uint256"
            },
            {
              "internalType": "uint256",
              "name": "aliceOutputIOIndex",
              "type": "uint256"
            },
            {
              "internalType": "uint256",
              "name": "bobInputIOIndex",
              "type": "uint256"
            },
            {
              "internalType": "uint256",
              "name": "bobOutputIOIndex",
              "type": "uint256"
            },
            {
              "internalType": "uint256",
              "name": "aliceBountyVaultId",
              "type": "uint256"
            },
            {
              "internalType": "uint256",
              "name": "bobBountyVaultId",
              "type": "uint256"
            }
          ],
          "internalType": "struct ClearConfig",
          "name": "clearConfig",
          "type": "tuple"
        },
        {
          "components": [
            {
              "internalType": "address",
              "name": "signer",
              "type": "address"
            },
            {
              "internalType": "uint256[]",
              "name": "context",
              "type": "uint256[]"
            },
            {
              "internalType": "bytes",
              "name": "signature",
              "type": "bytes"
            }
          ],
          "internalType": "struct SignedContextV1[]",
          "name": "aliceSignedContext",
          "type": "tuple[]"
        },
        {
          "components": [
            {
              "internalType": "address",
              "name": "signer",
              "type": "address"
            },
            {
              "internalType": "uint256[]",
              "name": "context",
              "type": "uint256[]"
            },
            {
              "internalType": "bytes",
              "name": "signature",
              "type": "bytes"
            }
          ],
          "internalType": "struct SignedContextV1[]",
          "name": "bobSignedContext",
          "type": "tuple[]"
        }
      ],
      "name": "clear",
      "outputs": [],
      "stateMutability": "nonpayable",
      "type": "function"
    },
    {
      "inputs": [
        {
          "internalType": "address",
          "name": "token",
          "type": "address"
        },
        {
          "internalType": "uint256",
          "name": "vaultId",
          "type": "uint256"
        },
        {
          "internalType": "uint256",
          "name": "amount",
          "type": "uint256"
        }
      ],
      "name": "deposit",
      "outputs": [],
      "stateMutability": "nonpayable",
      "type": "function"
    },
    {
      "inputs": [
        {
          "internalType": "address",
          "name": "",
          "type": "address"
        },
        {
          "internalType": "uint256",
          "name": "",
          "type": "uint256"
        }
      ],
      "name": "flashFee",
      "outputs": [
        {
          "internalType": "uint256",
          "name": "",
          "type": "uint256"
        }
      ],
      "stateMutability": "pure",
      "type": "function"
    },
    {
      "inputs": [
        {
          "internalType": "contract IERC3156FlashBorrower",
          "name": "receiver",
          "type": "address"
        },
        {
          "internalType": "address",
          "name": "token",
          "type": "address"
        },
        {
          "internalType": "uint256",
          "name": "amount",
          "type": "uint256"
        },
        {
          "internalType": "bytes",
          "name": "data",
          "type": "bytes"
        }
      ],
      "name": "flashLoan",
      "outputs": [
        {
          "internalType": "bool",
          "name": "",
          "type": "bool"
        }
      ],
      "stateMutability": "nonpayable",
      "type": "function"
    },
    {
      "inputs": [
        {
          "internalType": "address",
          "name": "token",
          "type": "address"
        }
      ],
      "name": "maxFlashLoan",
      "outputs": [
        {
          "internalType": "uint256",
          "name": "",
          "type": "uint256"
        }
      ],
      "stateMutability": "view",
      "type": "function"
    },
    {
      "inputs": [
        {
          "internalType": "bytes[]",
          "name": "data",
          "type": "bytes[]"
        }
      ],
      "name": "multicall",
      "outputs": [
        {
          "internalType": "bytes[]",
          "name": "results",
          "type": "bytes[]"
        }
      ],
      "stateMutability": "nonpayable",
      "type": "function"
    },
    {
      "inputs": [
        {
          "internalType": "bytes32",
          "name": "orderHash",
          "type": "bytes32"
        }
      ],
      "name": "orderExists",
      "outputs": [
        {
          "internalType": "bool",
          "name": "",
          "type": "bool"
        }
      ],
      "stateMutability": "view",
      "type": "function"
    },
    {
      "inputs": [
        {
          "components": [
            {
              "internalType": "address",
              "name": "owner",
              "type": "address"
            },
            {
              "internalType": "bool",
              "name": "handleIO",
              "type": "bool"
            },
            {
              "components": [
                {
                  "internalType": "contract IInterpreterV1",
                  "name": "interpreter",
                  "type": "address"
                },
                {
                  "internalType": "contract IInterpreterStoreV1",
                  "name": "store",
                  "type": "address"
                },
                {
                  "internalType": "address",
                  "name": "expression",
                  "type": "address"
                }
              ],
              "internalType": "struct Evaluable",
              "name": "evaluable",
              "type": "tuple"
            },
            {
              "components": [
                {
                  "internalType": "address",
                  "name": "token",
                  "type": "address"
                },
                {
                  "internalType": "uint8",
                  "name": "decimals",
                  "type": "uint8"
                },
                {
                  "internalType": "uint256",
                  "name": "vaultId",
                  "type": "uint256"
                }
              ],
              "internalType": "struct IO[]",
              "name": "validInputs",
              "type": "tuple[]"
            },
            {
              "components": [
                {
                  "internalType": "address",
                  "name": "token",
                  "type": "address"
                },
                {
                  "internalType": "uint8",
                  "name": "decimals",
                  "type": "uint8"
                },
                {
                  "internalType": "uint256",
                  "name": "vaultId",
                  "type": "uint256"
                }
              ],
              "internalType": "struct IO[]",
              "name": "validOutputs",
              "type": "tuple[]"
            }
          ],
          "internalType": "struct Order",
          "name": "order",
          "type": "tuple"
        }
      ],
      "name": "removeOrder",
      "outputs": [
        {
          "internalType": "bool",
          "name": "stateChanged",
          "type": "bool"
        }
      ],
      "stateMutability": "nonpayable",
      "type": "function"
    },
    {
      "inputs": [
        {
          "components": [
            {
              "internalType": "address",
              "name": "output",
              "type": "address"
            },
            {
              "internalType": "address",
              "name": "input",
              "type": "address"
            },
            {
              "internalType": "uint256",
              "name": "minimumInput",
              "type": "uint256"
            },
            {
              "internalType": "uint256",
              "name": "maximumInput",
              "type": "uint256"
            },
            {
              "internalType": "uint256",
              "name": "maximumIORatio",
              "type": "uint256"
            },
            {
              "components": [
                {
                  "components": [
                    {
                      "internalType": "address",
                      "name": "owner",
                      "type": "address"
                    },
                    {
                      "internalType": "bool",
                      "name": "handleIO",
                      "type": "bool"
                    },
                    {
                      "components": [
                        {
                          "internalType": "contract IInterpreterV1",
                          "name": "interpreter",
                          "type": "address"
                        },
                        {
                          "internalType": "contract IInterpreterStoreV1",
                          "name": "store",
                          "type": "address"
                        },
                        {
                          "internalType": "address",
                          "name": "expression",
                          "type": "address"
                        }
                      ],
                      "internalType": "struct Evaluable",
                      "name": "evaluable",
                      "type": "tuple"
                    },
                    {
                      "components": [
                        {
                          "internalType": "address",
                          "name": "token",
                          "type": "address"
                        },
                        {
                          "internalType": "uint8",
                          "name": "decimals",
                          "type": "uint8"
                        },
                        {
                          "internalType": "uint256",
                          "name": "vaultId",
                          "type": "uint256"
                        }
                      ],
                      "internalType": "struct IO[]",
                      "name": "validInputs",
                      "type": "tuple[]"
                    },
                    {
                      "components": [
                        {
                          "internalType": "address",
                          "name": "token",
                          "type": "address"
                        },
                        {
                          "internalType": "uint8",
                          "name": "decimals",
                          "type": "uint8"
                        },
                        {
                          "internalType": "uint256",
                          "name": "vaultId",
                          "type": "uint256"
                        }
                      ],
                      "internalType": "struct IO[]",
                      "name": "validOutputs",
                      "type": "tuple[]"
                    }
                  ],
                  "internalType": "struct Order",
                  "name": "order",
                  "type": "tuple"
                },
                {
                  "internalType": "uint256",
                  "name": "inputIOIndex",
                  "type": "uint256"
                },
                {
                  "internalType": "uint256",
                  "name": "outputIOIndex",
                  "type": "uint256"
                },
                {
                  "components": [
                    {
                      "internalType": "address",
                      "name": "signer",
                      "type": "address"
                    },
                    {
                      "internalType": "uint256[]",
                      "name": "context",
                      "type": "uint256[]"
                    },
                    {
                      "internalType": "bytes",
                      "name": "signature",
                      "type": "bytes"
                    }
                  ],
                  "internalType": "struct SignedContextV1[]",
                  "name": "signedContext",
                  "type": "tuple[]"
                }
              ],
              "internalType": "struct TakeOrderConfig[]",
              "name": "orders",
              "type": "tuple[]"
            }
          ],
          "internalType": "struct TakeOrdersConfig",
          "name": "config",
          "type": "tuple"
        }
      ],
      "name": "takeOrders",
      "outputs": [
        {
          "internalType": "uint256",
          "name": "totalInput",
          "type": "uint256"
        },
        {
          "internalType": "uint256",
          "name": "totalOutput",
          "type": "uint256"
        }
      ],
      "stateMutability": "nonpayable",
      "type": "function"
    },
    {
      "inputs": [
        {
          "internalType": "address",
          "name": "owner",
          "type": "address"
        },
        {
          "internalType": "address",
          "name": "token",
          "type": "address"
        },
        {
          "internalType": "uint256",
          "name": "vaultId",
          "type": "uint256"
        }
      ],
      "name": "vaultBalance",
      "outputs": [
        {
          "internalType": "uint256",
          "name": "",
          "type": "uint256"
        }
      ],
      "stateMutability": "view",
      "type": "function"
    },
    {
      "inputs": [
        {
          "internalType": "address",
          "name": "token",
          "type": "address"
        },
        {
          "internalType": "uint256",
          "name": "vaultId",
          "type": "uint256"
        },
        {
          "internalType": "uint256",
          "name": "targetAmount",
          "type": "uint256"
        }
      ],
      "name": "withdraw",
      "outputs": [],
      "stateMutability": "nonpayable",
      "type": "function"
    }
  ],
  "bytecode": {
    "object": "0x6080604052600180546001600160a01b031990811690915560028054909116905560006003553480156200003257600080fd5b50604051620056c2380380620056c28339810160408190526200005591620002d5565b600160005560208101517fd55ed91accdfd893ecc4028057ab2894d6eb88b88f59a27f0b73eaef92d2043090829062000090908390620000e7565b60208101516040517fbea766d03fa1efd3f81cc8634d08320bc62bb0ed9234ac59bbaafa5893fb6b1391620000c99133913091620003e3565b60405180910390a18051620000de906200012e565b505050620004f9565b805160208201208281146200011e5760405163074fe10f60e41b815260048101849052602481018290526044015b60405180910390fd5b6200012982620001c5565b505050565b60408051600080825260208201818152828401938490526331a66b6560e01b90935291829182916001600160a01b038616916331a66b65916200017691906044820162000452565b6060604051808303816000875af115801562000196573d6000803e3d6000fd5b505050506040513d601f19601f82011682018060405250810190620001bc919062000489565b50505050505050565b620001d081620001f5565b620001f25780604051630c89984b60e31b8152600401620001159190620004dd565b50565b60006008825110156200020a57506000919050565b50600801516001600160401b031667ff0a89c674ee78741490565b634e487b7160e01b600052604160045260246000fd5b604080519081016001600160401b038111828210171562000260576200026062000225565b60405290565b604051601f8201601f191681016001600160401b038111828210171562000291576200029162000225565b604052919050565b6001600160a01b0381168114620001f257600080fd5b60005b83811015620002cc578181015183820152602001620002b2565b50506000910152565b60006020808385031215620002e957600080fd5b82516001600160401b03808211156200030157600080fd5b90840190604082870312156200031657600080fd5b620003206200023b565b82516200032d8162000299565b815282840151828111156200034157600080fd5b80840193505086601f8401126200035757600080fd5b8251828111156200036c576200036c62000225565b62000380601f8201601f1916860162000266565b925080835287858286010111156200039757600080fd5b620003a881868501878701620002af565b5092830152509392505050565b60008151808452620003cf816020860160208601620002af565b601f01601f19169290920160200192915050565b60018060a01b03841681528260208201526060604082015260006200040c6060830184620003b5565b95945050505050565b600081518084526020808501945080840160005b83811015620004475781518752958201959082019060010162000429565b509495945050505050565b606081526000606082015260806020820152600062000475608083018562000415565b82810360408401526200040c818562000415565b6000806000606084860312156200049f57600080fd5b8351620004ac8162000299565b6020850151909350620004bf8162000299565b6040850151909250620004d28162000299565b809150509250925092565b602081526000620004f26020830184620003b5565b9392505050565b6151b980620005096000396000f3fe608060405234801561001057600080fd5b50600436106100d45760003560e01c80639e18968b11610081578063d97b2e481161005b578063d97b2e48146101cb578063d9d98ce4146101de578063e23746a3146101f157600080fd5b80639e18968b14610185578063ac9650d814610198578063b5c5f672146101b857600080fd5b8063613255ab116100b2578063613255ab146101295780637a8048df1461014a578063847a1bc91461017257600080fd5b80630efe6a8b146100d95780632cb77e9f146100ee5780635cffe9de14610116575b600080fd5b6100ec6100e7366004613ade565b610204565b005b6101016100fc366004613b13565b61034b565b60405190151581526020015b60405180910390f35b610101610124366004613b2c565b6103a1565b61013c610137366004613bcb565b61067f565b60405190815260200161010d565b61015d610158366004613c00565b610729565b6040805192835260208301919091520161010d565b610101610180366004613c35565b610c92565b6100ec61019336600461413a565b6111cd565b6101ab6101a63660046141fc565b61178e565b60405161010d91906142df565b6100ec6101c6366004613ade565b611883565b61013c6101d936600461435f565b6119df565b61013c6101ec3660046143a0565b610720565b6101016101ff3660046143cc565b611a60565b61020c611bb1565b80600003610270576040517f40e97a5e00000000000000000000000000000000000000000000000000000000815233600482015273ffffffffffffffffffffffffffffffffffffffff84166024820152604481018390526064015b60405180910390fd5b6040805133815273ffffffffffffffffffffffffffffffffffffffff85166020820152908101839052606081018290527fdcbc1c05240f31ff3ad067ef1ee35ce4997762752e3a095284754544f4c709d79060800160405180910390a16102ef73ffffffffffffffffffffffffffffffffffffffff8416333084611c24565b33600090815260056020908152604080832073ffffffffffffffffffffffffffffffffffffffff87168452825280832085845290915281208054839290610337908490614436565b90915550506001600055505050565b505050565b60008054600203610388576040517f3ee5aeb500000000000000000000000000000000000000000000000000000000815260040160405180910390fd5b506000818152600460205260409020546001145b919050565b600073ffffffffffffffffffffffffffffffffffffffff86166103f0576040517f6ba9ecd800000000000000000000000000000000000000000000000000000000815260040160405180910390fd5b73ffffffffffffffffffffffffffffffffffffffff851661043d576040517fad1991f500000000000000000000000000000000000000000000000000000000815260040160405180910390fd5b83600003610477576040517f1f2a200500000000000000000000000000000000000000000000000000000000815260040160405180910390fd5b61047f611d06565b6002805473ffffffffffffffffffffffffffffffffffffffff8088167fffffffffffffffffffffffff00000000000000000000000000000000000000009283161790925560018054928916929091169190911790556104df600085614436565b60035561050373ffffffffffffffffffffffffffffffffffffffff86168786611d77565b6040517f23e30c8b00000000000000000000000000000000000000000000000000000000815260009073ffffffffffffffffffffffffffffffffffffffff8816906323e30c8b906105629033908a908a9087908b908b90600401614492565b6020604051808303816000875af1158015610581573d6000803e3d6000fd5b505050506040513d601f19601f820116820180604052508101906105a591906144e4565b90507f439148f0bbc682ca079e46d6e2c2f0c1e3b820f1a291b069d8882abf8cf18dd98114610603576040517f5b62c54800000000000000000000000000000000000000000000000000000000815260048101829052602401610267565b600354945084156106365761063073ffffffffffffffffffffffffffffffffffffffff8716883088611c24565b60006003555b600180547fffffffffffffffffffffffff0000000000000000000000000000000000000000908116909155600280549091169055610672611d06565b5060019695505050505050565b6000610689611dcd565b610720576040517f70a0823100000000000000000000000000000000000000000000000000000000815230600482015273ffffffffffffffffffffffffffffffffffffffff8316906370a0823190602401602060405180830381865afa1580156106f7573d6000803e3d6000fd5b505050506040513d601f19601f8201168201806040525081019061071b91906144e4565b610723565b60005b92915050565b600080610734611bb1565b600061079b604080516101208101825260006080820181815260a08301829052835160608082018652838252602080830185905282870185905260c086019290925260e0850181905261010085018190529184528301829052928201528181019190915290565b6040805160a08101825260008082526020808301829052835160608082018652838252918101839052808501929092529282015281810182905260808101829052908601355b6107ee60a08801886144fd565b9050841080156107fe5750600081115b15610bd95761081060a08801886144fd565b8581811061082057610820614565565b90506020028101906108329190614594565b61083b906145d2565b80519093509150600061084d83611e1e565b6000818152600460205260409020549091506108c05782516040805133815273ffffffffffffffffffffffffffffffffffffffff909216602083015281018290527fb70c12fa453793fa6818ec07c91e74363a47aa6a6829dcd9533937fdf30314f39060600160405180910390a1610bcd565b6108cd6020890189613bcb565b73ffffffffffffffffffffffffffffffffffffffff1683606001518560200151815181106108fd576108fd614565565b60200260200101516000015173ffffffffffffffffffffffffffffffffffffffff16146109aa57826060015184602001518151811061093e5761093e614565565b6020908102919091018101515190610958908a018a613bcb565b6040517ff902523f00000000000000000000000000000000000000000000000000000000815273ffffffffffffffffffffffffffffffffffffffff928316600482015291166024820152604401610267565b6109ba6040890160208a01613bcb565b73ffffffffffffffffffffffffffffffffffffffff1683608001518560400151815181106109ea576109ea614565565b60200260200101516000015173ffffffffffffffffffffffffffffffffffffffff1614610a4a578260800151846040015181518110610a2b57610a2b614565565b6020026020010151600001518860200160208101906109589190613bcb565b6000610a658486602001518760400151338960600151611e4e565b9050886080013581602001511115610ad55783516040805133815273ffffffffffffffffffffffffffffffffffffffff909216602083015281018390527fe3151dc8cb7a54ffc4baabd28c1f241c94d510b5e5b502491ac3cad6c16316d5906060015b60405180910390a1610bcb565b8051600003610b335783516040805133815273ffffffffffffffffffffffffffffffffffffffff909216602083015281018390527f500b713857325f9e6dcb52ae832eca9109d107ed1aae9cb4928b4c1e13f051aa90606001610ac8565b80516000908411610b445783610b47565b81515b90506000610b6583602001516001846125529092919063ffffffff16565b9050610b71828661466c565b9450610b7d818a614436565b9850610b8b86828486612570565b7f219a030b7ae56e7bea2baab709a4a45dc174a1f85e57730e5cb395bc3296254233888484604051610bc0949392919061479c565b60405180910390a150505b505b506001909301926107e1565b610be781606089013561466c565b95508660400135861015610c3457604080517f45094d8800000000000000000000000000000000000000000000000000000000815290880135600482015260248101879052604401610267565b610c65333087610c4760208c018c613bcb565b73ffffffffffffffffffffffffffffffffffffffff16929190611c24565b610c7f610c786040890160208a01613bcb565b3388612a1a565b50505050610c8d6001600055565b915091565b6000610c9c611bb1565b6000610cf6610cae60408501856148cc565b610cbc906020810190614900565b8080601f016020809104026020016040519081016040528093929190818152602001838380828437600092019190915250612ac892505050565b905080600003610d34576040517f1914441e000000000000000000000000000000000000000000000000000000008152336004820152602401610267565b80600103610d70576040517f7e47fcba000000000000000000000000000000000000000000000000000000008152336004820152602401610267565b610d7a8380614965565b9050600003610db7576040517f32586a92000000000000000000000000000000000000000000000000000000008152336004820152602401610267565b610dc46020840184614965565b9050600003610e01576040517f08d7d498000000000000000000000000000000000000000000000000000000008152336004820152602401610267565b60008080610e1260408701876148cc565b610e20906020810190613bcb565b73ffffffffffffffffffffffffffffffffffffffff166331a66b65610e4860408901896148cc565b610e56906020810190614900565b610e6360408b018b6148cc565b610e719060408101906144fd565b6040805160028082526020820152600081830152606081019091526040518663ffffffff1660e01b8152600401610eac9594939291906149cc565b6060604051808303816000875af1158015610ecb573d6000803e3d6000fd5b505050506040513d601f19601f82011682018060405250810190610eef9190614a3d565b92509250925060006040518060a001604052803373ffffffffffffffffffffffffffffffffffffffff1681526020016000610f7e8a8060400190610f3391906148cc565b610f41906020810190614900565b8080601f01602080910402602001604051908101604052809392919081815260200183838082843760009201919091525060019250612ae6915050565b1181526040805160608101825273ffffffffffffffffffffffffffffffffffffffff80891682528781166020838101919091529087168284015283015201610fc68980614965565b808060200260200160405190810160405280939291908181526020016000905b828210156110125761100360608302860136819003810190614a8a565b81526020019060010190610fe6565b5050505050815260200188806020019061102c9190614965565b808060200260200160405190810160405280939291908181526020016000905b828210156110785761106960608302860136819003810190614a8a565b8152602001906001019061104c565b50505050508152509050600061108d82611e1e565b6000818152600460205260409020549091506111bd576000818152600460205260409081902060019081905597507f6fa57e1a7a1fbbf3623af2b2025fcd9a5e7e4e31a2a6ec7523445f18e9c50ebf9033906110eb908b018b6148cc565b6110f9906020810190613bcb565b848460405161110b9493929190614aa6565b60405180910390a1600061112260608a018a614900565b905011156111bd5761117461113a60608a018a614900565b8080601f016020809104026020016040519081016040528093929190818152602001838380828437600092019190915250612aff92505050565b7fbea766d03fa1efd3f81cc8634d08320bc62bb0ed9234ac59bbaafa5893fb6b1333826111a460608c018c614900565b6040516111b49493929190614af0565b60405180910390a15b50505050505061039c6001600055565b6111d5611bb1565b8351855173ffffffffffffffffffffffffffffffffffffffff9182169116036112455784516040517f227e4ce900000000000000000000000000000000000000000000000000000000815273ffffffffffffffffffffffffffffffffffffffff9091166004820152602401610267565b836060015183604001358151811061125f5761125f614565565b60200260200101516000015173ffffffffffffffffffffffffffffffffffffffff16856080015184602001358151811061129b5761129b614565565b60200260200101516000015173ffffffffffffffffffffffffffffffffffffffff16146113605784608001518360200135815181106112dc576112dc614565565b602002602001015160000151846060015184604001358151811061130257611302614565565b6020908102919091010151516040517ff902523f00000000000000000000000000000000000000000000000000000000815273ffffffffffffffffffffffffffffffffffffffff928316600482015291166024820152604401610267565b60608501518051843590811061137857611378614565565b60200260200101516000015173ffffffffffffffffffffffffffffffffffffffff1684608001518460600135815181106113b4576113b4614565565b60200260200101516000015173ffffffffffffffffffffffffffffffffffffffff1614611419576060850151805184359081106113f3576113f3614565565b602002602001015160000151846080015184606001358151811061130257611302614565565b60006004600061142888611e1e565b815260200190815260200160002054036114a7577fb70c12fa453793fa6818ec07c91e74363a47aa6a6829dcd9533937fdf30314f333866000015161146c88611e1e565b6040805173ffffffffffffffffffffffffffffffffffffffff94851681529390921660208401529082015260600160405180910390a161177d565b6000600460006114b687611e1e565b815260200190815260200160002054036114fa577fb70c12fa453793fa6818ec07c91e74363a47aa6a6829dcd9533937fdf30314f333856000015161146c87611e1e565b7fd153812deb929a6e4378f6f8cf61d010470840bf2e736f43fb2275803958bfa23386868660405161152f9493929190614b26565b60405180910390a160006115528685600001358660200135886000015186611e4e565b9050600061156f86866040013587606001358a6000015188611e4e565b9050600061157d8383612b43565b9050611593888260400151836000015186612570565b6115a7878260600151836020015185612570565b606081015181516000916115ba9161466c565b90506000826040015183602001516115d2919061466c565b9050811561167857336000908152600560209081526040822060808d01518051869492938d013590811061160857611608614565565b60200260200101516000015173ffffffffffffffffffffffffffffffffffffffff1673ffffffffffffffffffffffffffffffffffffffff16815260200190815260200160002060008a60800135815260200190815260200160002060008282546116729190614436565b90915550505b801561171c5733600090815260056020526040812060808b015180518493919060608d01359081106116ac576116ac614565565b60200260200101516000015173ffffffffffffffffffffffffffffffffffffffff1673ffffffffffffffffffffffffffffffffffffffff16815260200190815260200160002060008a60a00135815260200190815260200160002060008282546117169190614436565b90915550505b5050604080513381528251602080830191909152830151818301529082015160608083019190915282015160808201527f3f20e55919cca701abb2a40ab72542b25ea7eed63a50f979dd2cd3231e5f488d9060a00160405180910390a15050505b6117876001600055565b5050505050565b60608167ffffffffffffffff8111156117a9576117a9613c70565b6040519080825280602002602001820160405280156117dc57816020015b60608152602001906001900390816117c75790505b50905060005b8281101561187c5761184c3085858481811061180057611800614565565b90506020028101906118129190614900565b8080601f016020809104026020016040519081016040528093929190818152602001838380828437600092019190915250612bec92505050565b82828151811061185e5761185e614565565b6020026020010181905250808061187490614bb0565b9150506117e2565b5092915050565b61188b611bb1565b806000036118ea576040517ff7a898f600000000000000000000000000000000000000000000000000000000815233600482015273ffffffffffffffffffffffffffffffffffffffff8416602482015260448101839052606401610267565b33600090815260056020908152604080832073ffffffffffffffffffffffffffffffffffffffff8716845282528083208584529091528120549061192e8383612c11565b905080156119d357611940818361466c565b33600081815260056020908152604080832073ffffffffffffffffffffffffffffffffffffffff8b168085529083528184208a855283529281902094909455835192835282015290810185905260608101849052608081018290527febff2602b3f468259e1e99f613fed6691f3a6526effe6ef3e768ba7ae7a36c4f9060a00160405180910390a16119d3853383612a1a565b50506103466001600055565b60008054600203611a1c576040517f3ee5aeb500000000000000000000000000000000000000000000000000000000815260040160405180910390fd5b5073ffffffffffffffffffffffffffffffffffffffff80841660009081526005602090815260408083209386168352928152828220848352905220545b9392505050565b6000611a6a611bb1565b611a776020830183613bcb565b73ffffffffffffffffffffffffffffffffffffffff163373ffffffffffffffffffffffffffffffffffffffff1614611b095733611ab76020840184613bcb565b6040517f4702b91400000000000000000000000000000000000000000000000000000000815273ffffffffffffffffffffffffffffffffffffffff928316600482015291166024820152604401610267565b6000611b1c611b1784614be8565b611e1e565b6000818152600460205260409020549091507fffffffffffffffffffffffffffffffffffffffffffffffffffffffffffffffff01611ba6576000818152600460205260408082209190915551600192507f74037e398a4a92c9c1c49ac01c1dabd7f71165fbb4810b72c068f08edd19244890611b9d90339086908590614cc4565b60405180910390a15b5061039c6001600055565b600260005403611c1d576040517f08c379a000000000000000000000000000000000000000000000000000000000815260206004820152601f60248201527f5265656e7472616e637947756172643a207265656e7472616e742063616c6c006044820152606401610267565b6002600055565b60405173ffffffffffffffffffffffffffffffffffffffff80851660248301528316604482015260648101829052611d009085907f23b872dd00000000000000000000000000000000000000000000000000000000906084015b604080517fffffffffffffffffffffffffffffffffffffffffffffffffffffffffffffffe08184030181529190526020810180517bffffffffffffffffffffffffffffffffffffffffffffffffffffffff167fffffffff0000000000000000000000000000000000000000000000000000000090931692909217909152612c27565b50505050565b611d0e611dcd565b15611d75576001546002546003546040517f60817cfa00000000000000000000000000000000000000000000000000000000815273ffffffffffffffffffffffffffffffffffffffff93841660048201529290911660248301526044820152606401610267565b565b60405173ffffffffffffffffffffffffffffffffffffffff83166024820152604481018290526103469084907fa9059cbb0000000000000000000000000000000000000000000000000000000090606401611c7e565b60015460009073ffffffffffffffffffffffffffffffffffffffff16151580611e0d575060025473ffffffffffffffffffffffffffffffffffffffff1615155b80611e19575060035415155b905090565b600081604051602001611e319190614dc9565b604051602081830303815290604052805190602001209050919050565b611e806040518060a0016040528060008152602001600081526020016060815260200160008152602001606081525090565b6000611e8b87611e1e565b60408051600480825260a08201909252919250606091600091816020015b6060815260200190600190039081611ea957905050895160408051600381526020810187905273ffffffffffffffffffffffffffffffffffffffff928316818301529189166060830152608082019052909150816001800381518110611f1157611f11614565565b60200260200101819052506120a689606001518981518110611f3557611f35614565565b60200260200101516000015173ffffffffffffffffffffffffffffffffffffffff168a606001518a81518110611f6d57611f6d614565565b60200260200101516020015160ff168b606001518b81518110611f9257611f92614565565b602002602001015160400151600560008e6000015173ffffffffffffffffffffffffffffffffffffffff1673ffffffffffffffffffffffffffffffffffffffff16815260200190815260200160002060008e606001518e81518110611ff957611ff9614565565b60200260200101516000015173ffffffffffffffffffffffffffffffffffffffff1673ffffffffffffffffffffffffffffffffffffffff16815260200190815260200160002060008e606001518e8151811061205757612057614565565b602002602001015160400151815260200190815260200160002054600060408051600581526020810196909652858101949094526060850192909252608084015260a083015260c08201905290565b816001600303815181106120bc576120bc614565565b6020026020010181905250612202896080015188815181106120e0576120e0614565565b60200260200101516000015173ffffffffffffffffffffffffffffffffffffffff168a60800151898151811061211857612118614565565b60200260200101516020015160ff168b608001518a8151811061213d5761213d614565565b602002602001015160400151600560008e6000015173ffffffffffffffffffffffffffffffffffffffff1673ffffffffffffffffffffffffffffffffffffffff16815260200190815260200160002060008e608001518d815181106121a4576121a4614565565b60200260200101516000015173ffffffffffffffffffffffffffffffffffffffff1673ffffffffffffffffffffffffffffffffffffffff16815260200190815260200160002060008e608001518d8151811061205757612057614565565b8160016004038151811061221857612218614565565b602002602001018190525061222d8186612d36565b9150506000886000015173ffffffffffffffffffffffffffffffffffffffff1690506000808a604001516000015173ffffffffffffffffffffffffffffffffffffffff16636715f8258c6040015160200151856122918f6040015160400151613046565b886040518563ffffffff1660e01b81526004016122b19493929190614e31565b600060405180830381865afa1580156122ce573d6000803e3d6000fd5b505050506040513d6000823e601f3d9081017fffffffffffffffffffffffffffffffffffffffffffffffffffffffffffffffe01682016040526123149190810190614ec7565b9150915060008260028451038151811061233057612330614565565b6020026020010151905060008360018551038151811061235257612352614565565b602002602001015190506123968d608001518c8151811061237557612375614565565b60200260200101516020015160ff1660028461306f9092919063ffffffff16565b91506123f28d608001518c815181106123b1576123b1614565565b6020026020010151602001518e606001518e815181106123d3576123d3614565565b6020026020010151602001516001846130f4909392919063ffffffff16565b90506000600560008f6000015173ffffffffffffffffffffffffffffffffffffffff1673ffffffffffffffffffffffffffffffffffffffff16815260200190815260200160002060008f608001518e8151811061245157612451614565565b60200260200101516000015173ffffffffffffffffffffffffffffffffffffffff1673ffffffffffffffffffffffffffffffffffffffff16815260200190815260200160002060008f608001518e815181106124af576124af614565565b60200260200101516040015181526020019081526020016000205490508083116124d957826124db565b805b604080516002815260208101839052808201859052606081019091529093508760028151811061250d5761250d614565565b60200260200101819052506040518060a00160405280848152602001838152602001888152602001878152602001858152509850505050505050505095945050505050565b60006125688484670de0b6b3a76400008561316f565b949350505050565b82816040015160038151811061258857612588614565565b60200260200101516004815181106125a2576125a2614565565b6020026020010181815250508181604001516004815181106125c6576125c6614565565b60200260200101516004815181106125e0576125e0614565565b602090810291909101015282156126ed57835173ffffffffffffffffffffffffffffffffffffffff1660009081526005602052604080822090830151805186939190600390811061263357612633614565565b602002602001015160008151811061264d5761264d614565565b602002602001015173ffffffffffffffffffffffffffffffffffffffff1673ffffffffffffffffffffffffffffffffffffffff168152602001908152602001600020600083604001516003815181106126a8576126a8614565565b60200260200101516002815181106126c2576126c2614565565b6020026020010151815260200190815260200160002060008282546126e79190614436565b90915550505b81156127ef57835173ffffffffffffffffffffffffffffffffffffffff1660009081526005602052604080822090830151805185939190600490811061273557612735614565565b602002602001015160008151811061274f5761274f614565565b602002602001015173ffffffffffffffffffffffffffffffffffffffff1673ffffffffffffffffffffffffffffffffffffffff168152602001908152602001600020600083604001516004815181106127aa576127aa614565565b60200260200101516002815181106127c4576127c4614565565b6020026020010151815260200190815260200160002060008282546127e9919061466c565b90915550505b7f17a5c0f3785132a57703932032f6863e7920434150aa1dc940e567b440fdce1f338260400151604051612824929190614f2b565b60405180910390a1608081015151156128b55783604001516020015173ffffffffffffffffffffffffffffffffffffffff1663946aadc6826060015183608001516040518363ffffffff1660e01b8152600401612882929190614f5a565b600060405180830381600087803b15801561289c57600080fd5b505af11580156128b0573d6000803e3d6000fd5b505050505b836020015115611d005760008085604001516000015173ffffffffffffffffffffffffffffffffffffffff16636715f82587604001516020015185606001516129058a60400151604001516131cc565b87604001516040518563ffffffff1660e01b81526004016129299493929190614e31565b600060405180830381865afa158015612946573d6000803e3d6000fd5b505050506040513d6000823e601f3d9081017fffffffffffffffffffffffffffffffffffffffffffffffffffffffffffffffe016820160405261298c9190810190614ec7565b8051919350915015612a125785604001516020015173ffffffffffffffffffffffffffffffffffffffff1663946aadc68460600151836040518363ffffffff1660e01b81526004016129df929190614f5a565b600060405180830381600087803b1580156129f957600080fd5b505af1158015612a0d573d6000803e3d6000fd5b505050505b505050505050565b60025473ffffffffffffffffffffffffffffffffffffffff8481169116148015612a5e575060015473ffffffffffffffffffffffffffffffffffffffff8381169116145b15612aa1576000612a7a60035483612c1190919063ffffffff16565b9050612a86818361466c565b91508060036000828254612a9a919061466c565b9091555050505b80156103465761034673ffffffffffffffffffffffffffffffffffffffff84168383611d77565b60008151600003612adb57506000919050565b506020015160001a90565b600080612af384846131f7565b5160001a949350505050565b612b0881613228565b612b4057806040517f644cc2580000000000000000000000000000000000000000000000000000000081526004016102679190614f73565b50565b612b6e6040518060800160405280600081526020016000815260200160008152602001600081525090565b60208201518251612b8d91612b8591906001612552565b845190612c11565b815260208301518351612bae91612ba691906001612552565b835190612c11565b6020808301919091528301518151612bc7916001612552565b604082015260208083015190820151612be1916001612552565b606082015292915050565b6060611a59838360405180606001604052806027815260200161519260279139613258565b6000818310612c205781611a59565b5090919050565b6000612c89826040518060400160405280602081526020017f5361666545524332303a206c6f772d6c6576656c2063616c6c206661696c65648152508573ffffffffffffffffffffffffffffffffffffffff166132dd9092919063ffffffff16565b9050805160001480612caa575080806020019051810190612caa9190614f86565b610346576040517f08c379a000000000000000000000000000000000000000000000000000000000815260206004820152602a60248201527f5361666545524332303a204552433230206f7065726174696f6e20646964206e60448201527f6f742073756363656564000000000000000000000000000000000000000000006064820152608401610267565b60606000825167ffffffffffffffff811115612d5457612d54613c70565b604051908082528060200260200182016040528015612d7d578160200160208202803683370190505b509050600080845111612d91576000612d97565b83516001015b855160010101905060008167ffffffffffffffff811115612dba57612dba613c70565b604051908082528060200260200182016040528015612ded57816020015b6060815260200190600190039081612dd85790505b5090506000612e12604080516002815233602082015230818301526060810190915290565b828281518110612e2457612e24614565565b602002602001018190525060005b8751811015612e82578180600101925050878181518110612e5557612e55614565565b6020026020010151838381518110612e6f57612e6f614565565b6020908102919091010152600101612e32565b5085511561303c57808060010191505083828281518110612ea557612ea5614565565b602002602001018190525060005b865181101561303a57612f64878281518110612ed157612ed1614565565b602002602001015160000151612f41612f0e8a8581518110612ef557612ef5614565565b6020026020010151602001518051602090810291012090565b7f19457468657265756d205369676e6564204d6573736167653a0a3332000000006000908152601c91909152603c902090565b898481518110612f5357612f53614565565b6020026020010151604001516132ec565b612f9d576040517f52bf984800000000000000000000000000000000000000000000000000000000815260048101829052602401610267565b868181518110612faf57612faf614565565b60200260200101516000015173ffffffffffffffffffffffffffffffffffffffff16858281518110612fe357612fe3614565565b602002602001018181525050818060010192505086818151811061300957613009614565565b60200260200101516020015183838151811061302757613027614565565b6020908102919091010152600101612eb3565b505b5095945050505050565b6000602082901b77ffffffffffffffffffffffffffffffffffffffff0000000016600217610723565b600082601211156130a4576012839003600183161561309a57613092858261335d565b915050611a59565b61309285826133ab565b60128311156130ed577fffffffffffffffffffffffffffffffffffffffffffffffffffffffffffffffee830160028316156130e35761309285826133d7565b613092858261345d565b5082611a59565b60008360ff168360ff1611156131325783830360028316156131255761311d868260ff166133d7565b915050612568565b61311d868260ff1661345d565b8260ff168460ff1611156131665782840360018316156131595761311d868260ff1661335d565b61311d868260ff166133ab565b50929392505050565b60008061317d86868661348c565b9050600183600281111561319357613193614fa3565b1480156131b05750600084806131ab576131ab614fd2565b868809115b156131c3576131c0600182614436565b90505b95945050505050565b600062010000602083901b77ffffffffffffffffffffffffffffffffffffffff000000001617610723565b60008061320384612ac8565b6002026001019050600061321785856135b6565b949091019093016020019392505050565b600060088251101561323c57506000919050565b506008015167ffffffffffffffff1667ff0a89c674ee78741490565b60606000808573ffffffffffffffffffffffffffffffffffffffff16856040516132829190615001565b600060405180830381855af49150503d80600081146132bd576040519150601f19603f3d011682016040523d82523d6000602084013e6132c2565b606091505b50915091506132d38683838761362e565b9695505050505050565b606061256884846000856136ce565b60008060006132fb85856137e7565b9092509050600081600481111561331457613314614fa3565b14801561334c57508573ffffffffffffffffffffffffffffffffffffffff168273ffffffffffffffffffffffffffffffffffffffff16145b806132d357506132d386868661382c565b6000604e8210613381578215613374576001613377565b60005b60ff169050610723565b600a82900a80848161339557613395614fd2565b049150808202841461187c575060010192915050565b6000604e8210156133ce5781600a0a83816133c8576133c8614fd2565b04611a59565b50600092915050565b6000604e821061341757821561340d577fffffffffffffffffffffffffffffffffffffffffffffffffffffffffffffffff613410565b60005b9050610723565b50600a81900a828102908381838161343157613431614fd2565b041461187c577fffffffffffffffffffffffffffffffffffffffffffffffffffffffffffffffff612568565b600a81900a61346c8184615013565b9050604e82106107235782156133ce5761348782600a61514a565b611a59565b600080807fffffffffffffffffffffffffffffffffffffffffffffffffffffffffffffffff858709858702925082811083820303915050806000036134e4578382816134da576134da614fd2565b0492505050611a59565b80841161354d576040517f08c379a000000000000000000000000000000000000000000000000000000000815260206004820152601560248201527f4d6174683a206d756c446976206f766572666c6f7700000000000000000000006044820152606401610267565b60008486880960026001871981018816978890046003810283188082028403028082028403028082028403028082028403028082028403029081029092039091026000889003889004909101858311909403939093029303949094049190911702949350505050565b6002810282016003015161ffff1660006135cf84612ac8565b8451909150600560028302840101908111806135eb5750818410155b156136265784846040517fd3fc97bd000000000000000000000000000000000000000000000000000000008152600401610267929190615156565b505092915050565b606083156136c45782516000036136bd5773ffffffffffffffffffffffffffffffffffffffff85163b6136bd576040517f08c379a000000000000000000000000000000000000000000000000000000000815260206004820152601d60248201527f416464726573733a2063616c6c20746f206e6f6e2d636f6e74726163740000006044820152606401610267565b5081612568565b6125688383613989565b606082471015613760576040517f08c379a000000000000000000000000000000000000000000000000000000000815260206004820152602660248201527f416464726573733a20696e73756666696369656e742062616c616e636520666f60448201527f722063616c6c00000000000000000000000000000000000000000000000000006064820152608401610267565b6000808673ffffffffffffffffffffffffffffffffffffffff1685876040516137899190615001565b60006040518083038185875af1925050503d80600081146137c6576040519150601f19603f3d011682016040523d82523d6000602084013e6137cb565b606091505b50915091506137dc8783838761362e565b979650505050505050565b600080825160410361381d5760208301516040840151606085015160001a613811878285856139cd565b94509450505050613825565b506000905060025b9250929050565b60008060008573ffffffffffffffffffffffffffffffffffffffff16631626ba7e60e01b8686604051602401613863929190615178565b604080517fffffffffffffffffffffffffffffffffffffffffffffffffffffffffffffffe08184030181529181526020820180517bffffffffffffffffffffffffffffffffffffffffffffffffffffffff167fffffffff000000000000000000000000000000000000000000000000000000009094169390931790925290516138ec9190615001565b600060405180830381855afa9150503d8060008114613927576040519150601f19603f3d011682016040523d82523d6000602084013e61392c565b606091505b509150915081801561394057506020815110155b80156132d3575080517f1626ba7e000000000000000000000000000000000000000000000000000000009061397e90830160209081019084016144e4565b149695505050505050565b8151156139995781518083602001fd5b806040517f08c379a00000000000000000000000000000000000000000000000000000000081526004016102679190614f73565b6000807f7fffffffffffffffffffffffffffffff5d576e7357a4501ddfe92f46681b20a0831115613a045750600090506003613ab3565b6040805160008082526020820180845289905260ff881692820192909252606081018690526080810185905260019060a0016020604051602081039080840390855afa158015613a58573d6000803e3d6000fd5b50506040517fffffffffffffffffffffffffffffffffffffffffffffffffffffffffffffffe0015191505073ffffffffffffffffffffffffffffffffffffffff8116613aac57600060019250925050613ab3565b9150600090505b94509492505050565b73ffffffffffffffffffffffffffffffffffffffff81168114612b4057600080fd5b600080600060608486031215613af357600080fd5b8335613afe81613abc565b95602085013595506040909401359392505050565b600060208284031215613b2557600080fd5b5035919050565b600080600080600060808688031215613b4457600080fd5b8535613b4f81613abc565b94506020860135613b5f81613abc565b935060408601359250606086013567ffffffffffffffff80821115613b8357600080fd5b818801915088601f830112613b9757600080fd5b813581811115613ba657600080fd5b896020828501011115613bb857600080fd5b9699959850939650602001949392505050565b600060208284031215613bdd57600080fd5b8135611a5981613abc565b600060c08284031215613bfa57600080fd5b50919050565b600060208284031215613c1257600080fd5b813567ffffffffffffffff811115613c2957600080fd5b61256884828501613be8565b600060208284031215613c4757600080fd5b813567ffffffffffffffff811115613c5e57600080fd5b820160808185031215611a5957600080fd5b7f4e487b7100000000000000000000000000000000000000000000000000000000600052604160045260246000fd5b6040516060810167ffffffffffffffff81118282101715613cc257613cc2613c70565b60405290565b604051601f82017fffffffffffffffffffffffffffffffffffffffffffffffffffffffffffffffe016810167ffffffffffffffff81118282101715613d0f57613d0f613c70565b604052919050565b8015158114612b4057600080fd5b803561039c81613d17565b600060608284031215613d4257600080fd5b613d4a613c9f565b90508135613d5781613abc565b81526020820135613d6781613abc565b60208201526040820135613d7a81613abc565b604082015292915050565b600067ffffffffffffffff821115613d9f57613d9f613c70565b5060051b60200190565b803560ff8116811461039c57600080fd5b600060608284031215613dcc57600080fd5b613dd4613c9f565b90508135613de181613abc565b8152613def60208301613da9565b60208201526040820135604082015292915050565b600082601f830112613e1557600080fd5b81356020613e2a613e2583613d85565b613cc8565b82815260609283028501820192828201919087851115613e4957600080fd5b8387015b85811015613e6c57613e5f8982613dba565b8452928401928101613e4d565b5090979650505050505050565b600060e08284031215613e8b57600080fd5b60405160a0810167ffffffffffffffff8282108183111715613eaf57613eaf613c70565b8160405282935084359150613ec382613abc565b818352613ed260208601613d25565b6020840152613ee48660408701613d30565b604084015260a0850135915080821115613efd57600080fd5b613f0986838701613e04565b606084015260c0850135915080821115613f2257600080fd5b50613f2f85828601613e04565b6080830152505092915050565b600082601f830112613f4d57600080fd5b813567ffffffffffffffff811115613f6757613f67613c70565b613f9860207fffffffffffffffffffffffffffffffffffffffffffffffffffffffffffffffe0601f84011601613cc8565b818152846020838601011115613fad57600080fd5b816020850160208301376000918101602001919091529392505050565b600082601f830112613fdb57600080fd5b81356020613feb613e2583613d85565b82815260059290921b8401810191818101908684111561400a57600080fd5b8286015b8481101561412f57803567ffffffffffffffff8082111561402e57600080fd5b908801906060828b037fffffffffffffffffffffffffffffffffffffffffffffffffffffffffffffffe00112156140655760008081fd5b61406d613c9f565b8683013561407a81613abc565b8152604083810135838111156140905760008081fd5b8401603f81018d136140a25760008081fd5b888101356140b2613e2582613d85565b81815260059190911b82018301908a8101908f8311156140d25760008081fd5b928401925b828410156140f05783358252928b0192908b01906140d7565b858c015250505060608401358381111561410a5760008081fd5b6141188d8a83880101613f3c565b91830191909152508552505091830191830161400e565b509695505050505050565b6000806000806000610140868803121561415357600080fd5b853567ffffffffffffffff8082111561416b57600080fd5b61417789838a01613e79565b9650602088013591508082111561418d57600080fd5b61419989838a01613e79565b95506141a88960408a01613be8565b94506101008801359150808211156141bf57600080fd5b6141cb89838a01613fca565b93506101208801359150808211156141e257600080fd5b506141ef88828901613fca565b9150509295509295909350565b6000806020838503121561420f57600080fd5b823567ffffffffffffffff8082111561422757600080fd5b818501915085601f83011261423b57600080fd5b81358181111561424a57600080fd5b8660208260051b850101111561425f57600080fd5b60209290920196919550909350505050565b60005b8381101561428c578181015183820152602001614274565b50506000910152565b600081518084526142ad816020860160208601614271565b601f017fffffffffffffffffffffffffffffffffffffffffffffffffffffffffffffffe0169290920160200192915050565b6000602080830181845280855180835260408601915060408160051b870101925083870160005b82811015614352577fffffffffffffffffffffffffffffffffffffffffffffffffffffffffffffffc0888603018452614340858351614295565b94509285019290850190600101614306565b5092979650505050505050565b60008060006060848603121561437457600080fd5b833561437f81613abc565b9250602084013561438f81613abc565b929592945050506040919091013590565b600080604083850312156143b357600080fd5b82356143be81613abc565b946020939093013593505050565b6000602082840312156143de57600080fd5b813567ffffffffffffffff8111156143f557600080fd5b820160e08185031215611a5957600080fd5b7f4e487b7100000000000000000000000000000000000000000000000000000000600052601160045260246000fd5b8082018082111561072357610723614407565b8183528181602085013750600060208284010152600060207fffffffffffffffffffffffffffffffffffffffffffffffffffffffffffffffe0601f840116840101905092915050565b600073ffffffffffffffffffffffffffffffffffffffff808916835280881660208401525085604083015284606083015260a060808301526144d860a083018486614449565b98975050505050505050565b6000602082840312156144f657600080fd5b5051919050565b60008083357fffffffffffffffffffffffffffffffffffffffffffffffffffffffffffffffe184360301811261453257600080fd5b83018035915067ffffffffffffffff82111561454d57600080fd5b6020019150600581901b360382131561382557600080fd5b7f4e487b7100000000000000000000000000000000000000000000000000000000600052603260045260246000fd5b600082357fffffffffffffffffffffffffffffffffffffffffffffffffffffffffffffff818336030181126145c857600080fd5b9190910192915050565b6000608082360312156145e457600080fd5b6040516080810167ffffffffffffffff828210818311171561460857614608613c70565b81604052843591508082111561461d57600080fd5b61462936838701613e79565b83526020850135602084015260408501356040840152606085013591508082111561465357600080fd5b5061466036828601613fca565b60608301525092915050565b8181038181111561072357610723614407565b600081518084526020808501945080840160005b838110156146de578151805173ffffffffffffffffffffffffffffffffffffffff1688528381015160ff16848901526040908101519088015260609096019590820190600101614693565b509495945050505050565b600073ffffffffffffffffffffffffffffffffffffffff80835116845260208301511515602085015260408301518181511660408601528160208201511660608601528160408201511660808601525050606082015160e060a085015261475360e085018261467f565b9050608083015184820360c08601526131c3828261467f565b600081518084526020808501945080840160005b838110156146de57815187529582019590820190600101614780565b600073ffffffffffffffffffffffffffffffffffffffff8087168352602060808185015286516080808601526147d66101008601826146e9565b90508188015160a086015260408089015160c08701526060808a01517fffffffffffffffffffffffffffffffffffffffffffffffffffffffffffffff808885030160e08901528381518086528686019150868160051b870101878401935060005b828110156148af577fffffffffffffffffffffffffffffffffffffffffffffffffffffffffffffffe088830301845284518a815116835289810151878b8501526148838885018261476c565b91890151848303858b015291905061489b8183614295565b968b0196958b019593505050600101614837565b50948a019b909b5250509095019590955250919695505050505050565b600082357fffffffffffffffffffffffffffffffffffffffffffffffffffffffffffffffa18336030181126145c857600080fd5b60008083357fffffffffffffffffffffffffffffffffffffffffffffffffffffffffffffffe184360301811261493557600080fd5b83018035915067ffffffffffffffff82111561495057600080fd5b60200191503681900382131561382557600080fd5b60008083357fffffffffffffffffffffffffffffffffffffffffffffffffffffffffffffffe184360301811261499a57600080fd5b83018035915067ffffffffffffffff8211156149b557600080fd5b602001915060608102360382131561382557600080fd5b6060815260006149e0606083018789614449565b82810360208401528481527f07ffffffffffffffffffffffffffffffffffffffffffffffffffffffffffffff851115614a1857600080fd5b8460051b8087602084013701828103602090810160408501526144d89082018561476c565b600080600060608486031215614a5257600080fd5b8351614a5d81613abc565b6020850151909350614a6e81613abc565b6040850151909250614a7f81613abc565b809150509250925092565b600060608284031215614a9c57600080fd5b611a598383613dba565b600073ffffffffffffffffffffffffffffffffffffffff808716835280861660208401525060806040830152614adf60808301856146e9565b905082606083015295945050505050565b73ffffffffffffffffffffffffffffffffffffffff851681528360208201526060604082015260006132d3606083018486614449565b600061012073ffffffffffffffffffffffffffffffffffffffff87168352806020840152614b56818401876146e9565b90508281036040840152614b6a81866146e9565b9150508235606083015260208301356080830152604083013560a0830152606083013560c0830152608083013560e083015260a083013561010083015295945050505050565b60007fffffffffffffffffffffffffffffffffffffffffffffffffffffffffffffffff8203614be157614be1614407565b5060010190565b60006107233683613e79565b60008083357fffffffffffffffffffffffffffffffffffffffffffffffffffffffffffffffe1843603018112614c2957600080fd5b830160208101925035905067ffffffffffffffff811115614c4957600080fd5b60608102360382131561382557600080fd5b8183526000602080850194508260005b858110156146de578135614c7e81613abc565b73ffffffffffffffffffffffffffffffffffffffff16875260ff614ca3838501613da9565b16878401526040828101359088015260609687019690910190600101614c6b565b600073ffffffffffffffffffffffffffffffffffffffff8086168352606060208401528435614cf281613abc565b811660608401526020850135614d0781613d17565b151560808401526040850135614d1c81613abc565b811660a08401526060850135614d3181613abc565b811660c08401526080850135614d4681613abc565b1660e0830152614d5960a0850185614bf4565b60e0610100850152614d7061014085018284614c5b565b915050614d8060c0860186614bf4565b7fffffffffffffffffffffffffffffffffffffffffffffffffffffffffffffffa085840301610120860152614db6838284614c5b565b9350505050826040830152949350505050565b602081526000611a5960208301846146e9565b600081518084526020808501808196508360051b8101915082860160005b85811015614e24578284038952614e1284835161476c565b98850198935090840190600101614dfa565b5091979650505050505050565b73ffffffffffffffffffffffffffffffffffffffff851681528360208201528260408201526080606082015260006132d36080830184614ddc565b600082601f830112614e7d57600080fd5b81516020614e8d613e2583613d85565b82815260059290921b84018101918181019086841115614eac57600080fd5b8286015b8481101561412f5780518352918301918301614eb0565b60008060408385031215614eda57600080fd5b825167ffffffffffffffff80821115614ef257600080fd5b614efe86838701614e6c565b93506020850151915080821115614f1457600080fd5b50614f2185828601614e6c565b9150509250929050565b73ffffffffffffffffffffffffffffffffffffffff831681526040602082015260006125686040830184614ddc565b828152604060208201526000612568604083018461476c565b602081526000611a596020830184614295565b600060208284031215614f9857600080fd5b8151611a5981613d17565b7f4e487b7100000000000000000000000000000000000000000000000000000000600052602160045260246000fd5b7f4e487b7100000000000000000000000000000000000000000000000000000000600052601260045260246000fd5b600082516145c8818460208701614271565b808202811582820484141761072357610723614407565b600181815b8085111561508357817fffffffffffffffffffffffffffffffffffffffffffffffffffffffffffffffff0482111561506957615069614407565b8085161561507657918102915b93841c939080029061502f565b509250929050565b60008261509a57506001610723565b816150a757506000610723565b81600181146150bd57600281146150c7576150e3565b6001915050610723565b60ff8411156150d8576150d8614407565b50506001821b610723565b5060208310610133831016604e8410600b8410161715615106575081810a610723565b615110838361502a565b807fffffffffffffffffffffffffffffffffffffffffffffffffffffffffffffffff0482111561514257615142614407565b029392505050565b6000611a59838361508b565b6040815260006151696040830185614295565b90508260208301529392505050565b828152604060208201526000612568604083018461429556fe416464726573733a206c6f772d6c6576656c2064656c65676174652063616c6c206661696c6564",
    "linkReferences": {}
  },
  "methodIdentifiers": {
    "addOrder(((address,uint8,uint256)[],(address,uint8,uint256)[],(address,bytes,uint256[]),bytes))": "847a1bc9",
    "clear((address,bool,(address,address,address),(address,uint8,uint256)[],(address,uint8,uint256)[]),(address,bool,(address,address,address),(address,uint8,uint256)[],(address,uint8,uint256)[]),(uint256,uint256,uint256,uint256,uint256,uint256),(address,uint256[],bytes)[],(address,uint256[],bytes)[])": "9e18968b",
    "deposit(address,uint256,uint256)": "0efe6a8b",
    "flashFee(address,uint256)": "d9d98ce4",
    "flashLoan(address,address,uint256,bytes)": "5cffe9de",
    "maxFlashLoan(address)": "613255ab",
    "multicall(bytes[])": "ac9650d8",
    "orderExists(bytes32)": "2cb77e9f",
    "removeOrder((address,bool,(address,address,address),(address,uint8,uint256)[],(address,uint8,uint256)[]))": "e23746a3",
    "takeOrders((address,address,uint256,uint256,uint256,((address,bool,(address,address,address),(address,uint8,uint256)[],(address,uint8,uint256)[]),uint256,uint256,(address,uint256[],bytes)[])[]))": "7a8048df",
    "vaultBalance(address,address,uint256)": "d97b2e48",
    "withdraw(address,uint256,uint256)": "b5c5f672"
  },
  "id": 156
}